:100000000C942A000C9447000C9447000C94470071
:100010000C9447000C9447000C9447000C94F70193
:100020000C9447000C9447000C9447000C94470034
:100030000C9447000C9447000C9447000C94470024
:100040000C9447000C9447000C9447000C94470014
:100050000C94470011241FBECFE5D8E0DEBFCDBF12
:1000600010E0A0E6B0E0E8E5FCE002C005900D92EB
:10007000AA38B107D9F720E0AAE8B0E001C01D9284
:10008000A53DB207E1F70E94F1040C942A060C94F6
:100090000000482F60EF80E00E948F03089541E048
:1000A00063E081E00E94570389EF90E00197F1F748
:1000B00000C0000040E063E081E00E94570389EF48
:1000C00090E00197F1F700C000000895CF93C82F8A
:1000D00040E061E081E00E9457038C2F0E944900BC
:1000E0000E944F008C2F8295807F0E9449000E94C1
:1000F0004F00CF91089541E061E081E00E94260326
:1001000041E062E081E00E94260341E063E081E09B
:100110000E94260341E060EF80E00E94430340E03C
:1001200062E081E00E94570340E061E081E00E94CC
:10013000570380E20E9449000E944F0088E20E941B
:1001400066008CE00E9466000895CF93C82F41E0BE
:1001500061E081E00E9457038C2F0E9449000E94B9
:100160004F008C2F8295807F0E9449000E944F0093
:10017000CF9108950F931F93CF93DF93662371F070
:10018000EC016150062F10E00F5F1F4F080F191F81
:1001900089910E94A500C017D107D1F7DF91CF91B7
:1001A0001F910F910895811105C080E8860F0E946C
:1001B00066000895813021F480EC860F0E9466006D
:1001C000089581E00E94660088E20E9466008CE04B
:1001D0000E946600089510928A0089B78F7E89BFB9
:1001E0008EB5887F8EBD089581E080938A008EB59C
:1001F000887F82608EBD89B7806189BF78940895B9
:100200008EB5877E88608EBD8FB58C7F8FBD88EE62
:1002100093E09BBD8ABD0E94F4000895823050F4A3
:10022000F89495E1899FF0011124E457FF4F82E093
:10023000828378940895823088F4F89495E1899FB8
:10024000F0011124E457FF4F12821386148615869D
:10025000168613821482158216827894089582304D
:10026000A8F4F89495E1899FF0011124E457FF4F19
:10027000128287859089A189B28983879487A5870F
:10028000B68713821482158216827894089582307C
:10029000A8F4F89495E1899FF0011124E457FF4FE9
:1002A00012824787508B618B728B1386148615865A
:1002B0001686138214821582168278940895AF925E
:1002C000CF92EF92FF920F931F9361157105E1F0AA
:1002D0008230D0F490918B009230B0F4A5E18A9FE7
:1002E000F0011124E457FF4F838B718360832783D0
:1002F000308741875287E786F08A018B128BC48A48
:10030000A2829F5F90938B001F910F91FF90EF90BF
:10031000CF90AF900895FF920F931F93CF93DF93E9
:1003200080918A00813009F05CC0CCE8D0E006EB17
:1003300010E0FF24F394FE0188819981892B09F450
:100340004BC08A81811148C08B859C85AD85BE8557
:100350004F85588969897A89481759076A077B0741
:1003600088F084179507A607B70709F4FA82019663
:10037000A11DB11D83879487A587B68782818130AF
:1003800059F522C08F819885A985BA850097A10566
:10039000B10561F04B815C816D817E814F5F5F4F64
:1003A0006F4F7F4F4B835C836D837E83438154818A
:1003B0006581768184179507A607B70769F41382CC
:1003C000148215821682F2828489813029F4128285
:1003D0000190F081E02D09956596C017D10709F0CD
:1003E000AACFDF91CF911F910F91FF9008951F9297
:1003F0000F920FB60F9211242F933F934F935F9359
:100400006F937F938F939F93AF93BF93EF93FF93DC
:100410000E948B01FF91EF91BF91AF919F918F91BE
:100420007F916F915F914F913F912F910F900FBEF0
:100430000F901F901895EF92FF920F931F93CF93F9
:10044000DF93CCE8D0E006EB10E0E881F98130974B
:1004500051F08A81813039F40995F8948A8182308B
:1004600009F01A8278946596C017D10771F7DF9169
:10047000CF911F910F91FF90EF900895FC01892B70
:1004800031F081E09689992319F080E0089580E0A9
:10049000089521E0FC0186898A3008F420E0822F4B
:1004A0000895CF93C82F88E190E00E940905009736
:1004B00069F0FC01168A158A148AC78B9C012C5E90
:1004C0003F4F11921192E217F307D9F7CF91089598
:1004D000FC01F89486898A3098F49489A92FB0E0B9
:1004E000AA0FBB1FAE0FBF1F6D937C93993011F401
:1004F000148A02C09F5F948B8F5F868B81E001C05E
:1005000080E0789408950F931F93CF93DF93EC01CD
:100510008B01F8940E943E02811117C0ED89F0E032
:10052000EE0FFF1FEC0FFD1F80819181F801918379
:1005300080838D89893011F41D8A02C08F5F8D8B75
:100540008E8981508E8B81E001C080E07894DF91AC
:10055000CF911F910F9108950F931F93CF93DF9326
:10056000EC018B01F8940E943E0281110DC0ED89CF
:10057000F0E0EE0FFF1FEC0FFD1F80819181F8016D
:100580009183808381E001C080E07894DF91CF91F6
:100590001F910F910895CF93DF93EC01F8940E947F
:1005A0003E02811115C09D89E92FF0E0EE0FFF1F7B
:1005B000EC0FFD1F2081318111821082993011F4DE
:1005C0001D8A02C09F5F9D8B9E8991509E8B02C0A9
:1005D00020E030E07894C901DF91CF910895BF9277
:1005E000CF92DF92EF92FF920F931F93CF93DF93FF
:1005F000EC018B017A0169010E943E028130D9F041
:10060000BD8880E014C0EB2DF0E0EE0FFF1FEC0F73
:10061000FD1FA601B70180819181F8010995813004
:1006200059F0F9E0BF1611F0B39401C0B12C9C89C8
:10063000B912E9CF01C080E0DF91CF911F910F91F6
:10064000FF90EF90DF90CF90BF900895E82FF0E0FB
:10065000EE0FFF1FEA58FF4F0190F081E02D20813F
:1006600050E0062E02C0440F551F0A94E2F74227BD
:1006700081E090E002C0880F991F6A95E2F7482355
:10068000422740830895E82FF0E0EE0FFF1FEA585D
:10069000FF4F0190F081E02D908181E0413009F021
:1006A00080E0819589278623982790830895E82FF5
:1006B000F0E0EE0FFF1FE259FF4F0190F081E02DB7
:1006C000208150E0062E02C0440F551F0A94E2F725
:1006D000422781E090E002C0880F991F6A95E2F7F7
:1006E0004823422740830895E82FF0E0EE0FFF1FD4
:1006F000EA59FF4F0190F081E02D208181E090E0E8
:10070000062E02C0880F991F0A94E2F730E0822378
:10071000932302C0959587956A95E2F70895E82F8F
:10072000F0E0EE0FFF1FE259FF4F0190F081E02D46
:1007300040830895E82FF0E0EE0FFF1FEA59FF4FC6
:100740000190F081E02D8081862308951F93CF933F
:10075000DF93C0E011E0D3E064E06C0F82E00E9420
:1007600074036091CE00262F30E04C2F50E0F90149
:10077000EE0FFF1FE20FF31FEE53FF4FE40FF51FC5
:100780009081913011F138F0923009F458C09330D3
:1007900009F46EC085C0F901EE0FFF1FE20FF31FD1
:1007A000EA54FF4FE40FF51F9081992309F478C0B4
:1007B000811176C0F901EE0FFF1FE20FF31FEE5318
:1007C000FF4FE40FF51F10836BC081112DC0F9019D
:1007D000EE0FFF1FE20FF31FDF01AE53BF4FA40F59
:1007E000B51F82E08C93E258FF4FE40FF51FC081E4
:1007F0002F5F3F4FF901EE0FFF1F2E0F3F1FF90133
:10080000EA54FF4F108241E00E9457036091CE00EE
:100810006F5F63706093CE0040E082E00E945703F8
:10082000CC2309F46BC04CC0F901EE0FFF1FE20F9F
:10083000F31FEE53FF4FE40FF51F108231C0F90193
:10084000EE0FFF1FE20FF31FEA54FF4FE40FF51FF7
:100850009081911125C0882319F1F901EE0FFF1F36
:10086000E20FF31FEE53FF4FE40FF51FD08318C0C4
:10087000882359F0F901EE0FFF1FE20FF31FEE532B
:10088000FF4FE40FF51F10820BC0F901EE0FFF1FA1
:10089000E20FF31FEE53FF4FE40FF51F92E090833A
:1008A000F901EE0FFF1F2E0F3F1F2A543F4FF90192
:1008B000E40FF51F8083CF5FC33008F44DCF10C025
:1008C00081E090E00E9409050097C1F0FC01C0831F
:1008D000BC018091CF009091D0000E9468020EC0B0
:1008E00041E082E00E9457036091CE006F5F637029
:1008F0006093CE0040E082E00E945703DF91CF91E9
:100900001F910895AF92CF92EF92FF920F931F9392
:1009100041E06FE082E00E9443034FE06FE082E03D
:100920000E948F0340E060E782E00E94430340E7BB
:1009300060E782E00E948F0380E00E945102909362
:10094000D0008093CF00892B09F4FFCFA12CC12CBC
:10095000E12CF12C870125E030E040E050E066EA30
:1009600073E080E00E945F011F910F91FF90EF9074
:10097000CF90AF9008951F93CF93DF9300D0CDB762
:10098000DEB71A821982BE016F5F7F4F8091CF0060
:100990009091D0000E948302882339F089819A8146
:1009A000FC0110810E94A10501C010E0812F0F9071
:1009B0000F90DF91CF911F910895CF930E94BB04B8
:1009C000C82F882361F00E94E10060E080E00E946F
:1009D000D3008C2F0E94A50082B3805882BBCF9198
:1009E00008958F9A0E9482040E947B00A12CC12C42
:1009F000E12CF12C870125E030E040E050E06DED86
:100A000074E081E00E945F010E9400010E941B02CD
:100A1000FDCF0F931F93CF93DF938230910510F496
:100A200082E090E0E091D300F091D40020E030E04B
:100A3000A0E0B0E0309719F140815181028113812B
:100A400048175907C8F08417950769F4109731F0D3
:100A500012960C93129713961C9327C00093D30001
:100A60001093D40022C02115310519F04217530705
:100A700018F49A01BD01EF01DF01F801DBCF211568
:100A80003105F9F0281B390B2430310580F48A81B7
:100A90009B816115710521F0FB019383828304C062
:100AA0009093D4008093D300FE01329644C0FE019F
:100AB000E20FF31F819391932250310939832883E8
:100AC0003AC02091D1003091D200232B41F42091E3
:100AD0006200309163003093D2002093D1002091C6
:100AE0006000309161002115310541F42DB73EB70A
:100AF0004091640050916500241B350BE091D100BA
:100B0000F091D200E217F307A0F42E1B3F0B281739
:100B1000390778F0AC014E5F5F4F2417350748F076
:100B20004E0F5F1F5093D2004093D1008193919359
:100B300002C0E0E0F0E0CF01DF91CF911F910F9173
:100B40000895CF93DF93009709F481C0FC01329799
:100B500013821282A091D300B091D400109781F437
:100B600020813181820F931F2091D1003091D200DA
:100B70002817390751F5F093D200E093D10067C0F0
:100B8000ED0120E030E0CE17DF0740F44A815B81C1
:100B90009E0141155105F1F0EA01F5CFD383C283DF
:100BA00040815181840F951FC817D90759F4888156
:100BB0009981840F951F0296918380838A819B81FE
:100BC000938382832115310529F4F093D400E093B7
:100BD000D3003DC0E901FB83EA8349915991C40FD9
:100BE000D51FEC17FD0761F480819181840F951F5B
:100BF0000296E90199838883828193819B838A830A
:100C0000E0E0F0E012968D919C911397009719F017
:100C1000FD01DC01F7CF8D919C9111979D012E5F15
:100C20003F4F820F931F2091D1003091D20028179F
:100C3000390769F4309729F41092D4001092D30048
:100C400002C013821282B093D200A093D100DF9130
:080C5000CF910895F894FFCF45
:100C58000000D500200039003600330030003B008A
:100C68003800350032003A003700340031003132A4
:0A0C7800333435363738392A30237B
:00000001FF
